{
  "abi": [
    {
      "inputs": [
        {
          "internalType": "bytes32",
          "name": "_lizardRoot",
          "type": "bytes32"
        },
        {
          "internalType": "uint256",
          "name": "_editionCount",
          "type": "uint256"
        },
        {
          "internalType": "string",
          "name": "_baseURI",
          "type": "string"
        }
      ],
      "stateMutability": "nonpayable",
      "type": "constructor"
    },
    {
      "anonymous": false,
      "inputs": [
        {
          "indexed": true,
          "internalType": "address",
          "name": "owner",
          "type": "address"
        },
        {
          "indexed": true,
          "internalType": "address",
          "name": "approved",
          "type": "address"
        },
        {
          "indexed": true,
          "internalType": "uint256",
          "name": "tokenId",
          "type": "uint256"
        }
      ],
      "name": "Approval",
      "type": "event"
    },
    {
      "anonymous": false,
      "inputs": [
        {
          "indexed": true,
          "internalType": "address",
          "name": "owner",
          "type": "address"
        },
        {
          "indexed": true,
          "internalType": "address",
          "name": "operator",
          "type": "address"
        },
        {
          "indexed": false,
          "internalType": "bool",
          "name": "approved",
          "type": "bool"
        }
      ],
      "name": "ApprovalForAll",
      "type": "event"
    },
    {
      "anonymous": false,
      "inputs": [
        {
          "indexed": true,
          "internalType": "address",
          "name": "previousOwner",
          "type": "address"
        },
        {
          "indexed": true,
          "internalType": "address",
          "name": "newOwner",
          "type": "address"
        }
      ],
      "name": "OwnershipTransferStarted",
      "type": "event"
    },
    {
      "anonymous": false,
      "inputs": [
        {
          "indexed": true,
          "internalType": "address",
          "name": "previousOwner",
          "type": "address"
        },
        {
          "indexed": true,
          "internalType": "address",
          "name": "newOwner",
          "type": "address"
        }
      ],
      "name": "OwnershipTransferred",
      "type": "event"
    },
    {
      "anonymous": false,
      "inputs": [
        {
          "indexed": true,
          "internalType": "address",
          "name": "from",
          "type": "address"
        },
        {
          "indexed": true,
          "internalType": "address",
          "name": "to",
          "type": "address"
        },
        {
          "indexed": true,
          "internalType": "uint256",
          "name": "tokenId",
          "type": "uint256"
        }
      ],
      "name": "Transfer",
      "type": "event"
    },
    {
      "inputs": [],
      "name": "acceptOwnership",
      "outputs": [],
      "stateMutability": "nonpayable",
      "type": "function"
    },
    {
      "inputs": [
        {
          "internalType": "address",
          "name": "to",
          "type": "address"
        },
        {
          "internalType": "uint256",
          "name": "tokenId",
          "type": "uint256"
        }
      ],
      "name": "approve",
      "outputs": [],
      "stateMutability": "nonpayable",
      "type": "function"
    },
    {
      "inputs": [
        {
          "internalType": "address",
          "name": "owner",
          "type": "address"
        }
      ],
      "name": "balanceOf",
      "outputs": [
        {
          "internalType": "uint256",
          "name": "",
          "type": "uint256"
        }
      ],
      "stateMutability": "view",
      "type": "function"
    },
    {
      "inputs": [],
      "name": "baseURI",
      "outputs": [
        {
          "internalType": "string",
          "name": "",
          "type": "string"
        }
      ],
      "stateMutability": "view",
      "type": "function"
    },
    {
      "inputs": [],
      "name": "editionCount",
      "outputs": [
        {
          "internalType": "uint256",
          "name": "",
          "type": "uint256"
        }
      ],
      "stateMutability": "view",
      "type": "function"
    },
    {
      "inputs": [
        {
          "internalType": "uint256",
          "name": "tokenId",
          "type": "uint256"
        }
      ],
      "name": "getApproved",
      "outputs": [
        {
          "internalType": "address",
          "name": "",
          "type": "address"
        }
      ],
      "stateMutability": "view",
      "type": "function"
    },
    {
      "inputs": [
        {
          "internalType": "address",
          "name": "recipient",
          "type": "address"
        },
        {
          "internalType": "uint256",
          "name": "blockNumber",
          "type": "uint256"
        }
      ],
      "name": "getMessageHash",
      "outputs": [
        {
          "internalType": "bytes32",
          "name": "",
          "type": "bytes32"
        }
      ],
      "stateMutability": "view",
      "type": "function"
    },
    {
      "inputs": [
        {
          "internalType": "uint256",
          "name": "tokenId",
          "type": "uint256"
        }
      ],
      "name": "imageURI",
      "outputs": [
        {
          "internalType": "string",
          "name": "",
          "type": "string"
        }
      ],
      "stateMutability": "view",
      "type": "function"
    },
    {
      "inputs": [
        {
          "internalType": "address",
          "name": "owner",
          "type": "address"
        },
        {
          "internalType": "address",
          "name": "operator",
          "type": "address"
        }
      ],
      "name": "isApprovedForAll",
      "outputs": [
        {
          "internalType": "bool",
          "name": "",
          "type": "bool"
        }
      ],
      "stateMutability": "view",
      "type": "function"
    },
    {
      "inputs": [],
      "name": "lizardRoot",
      "outputs": [
        {
          "internalType": "bytes32",
          "name": "",
          "type": "bytes32"
        }
      ],
      "stateMutability": "view",
      "type": "function"
    },
    {
      "inputs": [
        {
          "internalType": "uint256",
          "name": "blockNumber",
          "type": "uint256"
        },
        {
          "internalType": "bytes",
          "name": "signature",
          "type": "bytes"
        },
        {
          "internalType": "bytes32[]",
          "name": "proof",
          "type": "bytes32[]"
        },
        {
          "internalType": "address",
          "name": "recipient",
          "type": "address"
        },
        {
          "internalType": "string",
          "name": "message",
          "type": "string"
        }
      ],
      "name": "mint",
      "outputs": [],
      "stateMutability": "nonpayable",
      "type": "function"
    },
    {
      "inputs": [],
      "name": "name",
      "outputs": [
        {
          "internalType": "string",
          "name": "",
          "type": "string"
        }
      ],
      "stateMutability": "view",
      "type": "function"
    },
    {
      "inputs": [],
      "name": "owner",
      "outputs": [
        {
          "internalType": "address",
          "name": "",
          "type": "address"
        }
      ],
      "stateMutability": "view",
      "type": "function"
    },
    {
      "inputs": [
        {
          "internalType": "uint256",
          "name": "tokenId",
          "type": "uint256"
        }
      ],
      "name": "ownerOf",
      "outputs": [
        {
          "internalType": "address",
          "name": "",
          "type": "address"
        }
      ],
      "stateMutability": "view",
      "type": "function"
    },
    {
      "inputs": [],
      "name": "pendingOwner",
      "outputs": [
        {
          "internalType": "address",
          "name": "",
          "type": "address"
        }
      ],
      "stateMutability": "view",
      "type": "function"
    },
    {
      "inputs": [],
      "name": "renderer",
      "outputs": [
        {
          "internalType": "address",
          "name": "",
          "type": "address"
        }
      ],
      "stateMutability": "view",
      "type": "function"
    },
    {
      "inputs": [],
      "name": "renounceOwnership",
      "outputs": [],
      "stateMutability": "nonpayable",
      "type": "function"
    },
    {
      "inputs": [
        {
          "internalType": "address",
          "name": "from",
          "type": "address"
        },
        {
          "internalType": "address",
          "name": "to",
          "type": "address"
        },
        {
          "internalType": "uint256",
          "name": "tokenId",
          "type": "uint256"
        }
      ],
      "name": "safeTransferFrom",
      "outputs": [],
      "stateMutability": "nonpayable",
      "type": "function"
    },
    {
      "inputs": [
        {
          "internalType": "address",
          "name": "from",
          "type": "address"
        },
        {
          "internalType": "address",
          "name": "to",
          "type": "address"
        },
        {
          "internalType": "uint256",
          "name": "tokenId",
          "type": "uint256"
        },
        {
          "internalType": "bytes",
          "name": "data",
          "type": "bytes"
        }
      ],
      "name": "safeTransferFrom",
      "outputs": [],
      "stateMutability": "nonpayable",
      "type": "function"
    },
    {
      "inputs": [
        {
          "internalType": "address",
          "name": "operator",
          "type": "address"
        },
        {
          "internalType": "bool",
          "name": "approved",
          "type": "bool"
        }
      ],
      "name": "setApprovalForAll",
      "outputs": [],
      "stateMutability": "nonpayable",
      "type": "function"
    },
    {
      "inputs": [
        {
          "internalType": "bytes4",
          "name": "interfaceId",
          "type": "bytes4"
        }
      ],
      "name": "supportsInterface",
      "outputs": [
        {
          "internalType": "bool",
          "name": "",
          "type": "bool"
        }
      ],
      "stateMutability": "view",
      "type": "function"
    },
    {
      "inputs": [],
      "name": "symbol",
      "outputs": [
        {
          "internalType": "string",
          "name": "",
          "type": "string"
        }
      ],
      "stateMutability": "view",
      "type": "function"
    },
    {
      "inputs": [
        {
          "internalType": "uint256",
          "name": "tokenId",
          "type": "uint256"
        }
      ],
      "name": "tokenURI",
      "outputs": [
        {
          "internalType": "string",
          "name": "",
          "type": "string"
        }
      ],
      "stateMutability": "view",
      "type": "function"
    },
    {
      "inputs": [
        {
          "internalType": "address",
          "name": "from",
          "type": "address"
        },
        {
          "internalType": "address",
          "name": "to",
          "type": "address"
        },
        {
          "internalType": "uint256",
          "name": "tokenId",
          "type": "uint256"
        }
      ],
      "name": "transferFrom",
      "outputs": [],
      "stateMutability": "nonpayable",
      "type": "function"
    },
    {
      "inputs": [
        {
          "internalType": "address",
          "name": "newOwner",
          "type": "address"
        }
      ],
      "name": "transferOwnership",
      "outputs": [],
      "stateMutability": "nonpayable",
      "type": "function"
    }
  ],
  "bytecode": {
    "object": "0x60c06040523480156200001157600080fd5b50604051620029093803806200290983398101604081905262000034916200017a565b60405180604001604052806008815260200167424541442044414f60c01b815250604051806040016040528060048152602001631091505160e21b8152508160009081620000839190620002f2565b506001620000928282620002f2565b505050620000af620000a9620000e460201b60201c565b620000e8565b608083905260a08290526009620000c78282620002f2565b5050600880546001600160a01b0319163017905550620003be9050565b3390565b600780546001600160a01b03191690556200010f8162000112602090811b62000cf417901c565b50565b600680546001600160a01b038381166001600160a01b0319831681179093556040519116919082907f8be0079c531659141344cd1fd0a4f28419497f9722a3daafe3b4186f6b6457e090600090a35050565b634e487b7160e01b600052604160045260246000fd5b6000806000606084860312156200019057600080fd5b835160208086015160408701519295509350906001600160401b0380821115620001b957600080fd5b818701915087601f830112620001ce57600080fd5b815181811115620001e357620001e362000164565b604051601f8201601f19908116603f011681019083821181831017156200020e576200020e62000164565b816040528281528a868487010111156200022757600080fd5b600093505b828410156200024b57848401860151818501870152928501926200022c565b60008684830101528096505050505050509250925092565b600181811c908216806200027857607f821691505b6020821081036200029957634e487b7160e01b600052602260045260246000fd5b50919050565b601f821115620002ed57600081815260208120601f850160051c81016020861015620002c85750805b601f850160051c820191505b81811015620002e957828155600101620002d4565b5050505b505050565b81516001600160401b038111156200030e576200030e62000164565b62000326816200031f845462000263565b846200029f565b602080601f8311600181146200035e5760008415620003455750858301515b600019600386901b1c1916600185901b178555620002e9565b600085815260208120601f198616915b828110156200038f578886015182559484019460019091019084016200036e565b5085821015620003ae5787850151600019600388901b60f8161c191681555b5050505050600190811b01905550565b60805160a051612517620003f2600039600081816102330152610a2701526000818161031e01526106b301526125176000f3fe608060405234801561001057600080fd5b50600436106101735760003560e01c8063715018a6116100de578063a22cb46511610097578063c87b56dd11610071578063c87b56dd14610340578063e30c397814610353578063e985e9c514610364578063f2fde38b146103a057600080fd5b8063a22cb465146102f3578063b88d4fde14610306578063b8b7005f1461031957600080fd5b8063715018a6146102a457806379ba5097146102ac5780638ada6b0f146102b45780638da5cb5b146102c75780638f742d16146102d857806395d89b41146102eb57600080fd5b806342842e0e1161013057806342842e0e1461021b5780634bf440261461022e578063512c91df146102635780636352211e146102765780636c0360eb1461028957806370a082311461029157600080fd5b806301ffc9a71461017857806306fdde03146101a0578063081812fc146101b5578063095ea7b3146101e057806323b872dd146101f55780633125ef4c14610208575b600080fd5b61018b610186366004611ac1565b6103b3565b60405190151581526020015b60405180910390f35b6101a8610405565b6040516101979190611b2e565b6101c86101c3366004611b41565b610497565b6040516001600160a01b039091168152602001610197565b6101f36101ee366004611b76565b6104be565b005b6101f3610203366004611ba0565b6105d8565b6101f3610216366004611cee565b610609565b6101f3610229366004611ba0565b61075b565b6102557f000000000000000000000000000000000000000000000000000000000000000081565b604051908152602001610197565b610255610271366004611b76565b610776565b6101c8610284366004611b41565b610813565b6101a8610873565b61025561029f366004611dcd565b610901565b6101f3610987565b6101f361099b565b6008546101c8906001600160a01b031681565b6006546001600160a01b03166101c8565b6101a86102e6366004611b41565b610a15565b6101a8610a8c565b6101f3610301366004611de8565b610a9b565b6101f3610314366004611e24565b610aaa565b6102557f000000000000000000000000000000000000000000000000000000000000000081565b6101a861034e366004611b41565b610ae2565b6007546001600160a01b03166101c8565b61018b610372366004611ea0565b6001600160a01b03918216600090815260056020908152604080832093909416825291909152205460ff1690565b6101f36103ae366004611dcd565b610c83565b60006001600160e01b031982166380ac58cd60e01b14806103e457506001600160e01b03198216635b5e139f60e01b145b806103ff57506301ffc9a760e01b6001600160e01b03198316145b92915050565b60606000805461041490611ed3565b80601f016020809104026020016040519081016040528092919081815260200182805461044090611ed3565b801561048d5780601f106104625761010080835404028352916020019161048d565b820191906000526020600020905b81548152906001019060200180831161047057829003601f168201915b5050505050905090565b60006104a282610d46565b506000908152600460205260409020546001600160a01b031690565b60006104c982610813565b9050806001600160a01b0316836001600160a01b03160361053b5760405162461bcd60e51b815260206004820152602160248201527f4552433732313a20617070726f76616c20746f2063757272656e74206f776e656044820152603960f91b60648201526084015b60405180910390fd5b336001600160a01b038216148061055757506105578133610372565b6105c95760405162461bcd60e51b815260206004820152603d60248201527f4552433732313a20617070726f76652063616c6c6572206973206e6f7420746f60448201527f6b656e206f776e6572206f7220617070726f76656420666f7220616c6c0000006064820152608401610532565b6105d38383610da5565b505050565b6105e23382610e13565b6105fe5760405162461bcd60e51b815260040161053290611f0d565b6105d3838383610e92565b60006106158389610776565b9050600061065b88888080601f01602080910402602001604051908101604052809392919081815260200183838082843760009201919091525086939250506110039050565b604080516001600160a01b03831660208201529192506000910160408051601f198184030181528282528051602091820120908301520160405160208183030381529060405280519060200120905060006106d888887f000000000000000000000000000000000000000000000000000000000000000085611027565b9050806107205760405162461bcd60e51b815260206004820152601660248201527514da59db995c881a5cc81b9bdd0818481b1a5e985c9960521b6044820152606401610532565b8451849015610743576000818152600a602052604090206107418782611fa8565b505b61074d878661103f565b505050505050505050505050565b6105d383838360405180602001604052806000815250610aaa565b6040516bffffffffffffffffffffffff19606084901b1660208201528140603482015260009061080c90605401604051602081830303815290604052805190602001206040517f19457468657265756d205369676e6564204d6573736167653a0a3332000000006020820152603c8101829052600090605c01604051602081830303815290604052805190602001209050919050565b9392505050565b6000818152600260205260408120546001600160a01b0316806103ff5760405162461bcd60e51b8152602060048201526018602482015277115490cdcc8c4e881a5b9d985b1a59081d1bdad95b88125160421b6044820152606401610532565b6009805461088090611ed3565b80601f01602080910402602001604051908101604052809291908181526020018280546108ac90611ed3565b80156108f95780601f106108ce576101008083540402835291602001916108f9565b820191906000526020600020905b8154815290600101906020018083116108dc57829003601f168201915b505050505081565b60006001600160a01b03821661096b5760405162461bcd60e51b815260206004820152602960248201527f4552433732313a2061646472657373207a65726f206973206e6f7420612076616044820152683634b21037bbb732b960b91b6064820152608401610532565b506001600160a01b031660009081526003602052604090205490565b61098f611059565b61099960006110b3565b565b60075433906001600160a01b03168114610a095760405162461bcd60e51b815260206004820152602960248201527f4f776e61626c6532537465703a2063616c6c6572206973206e6f7420746865206044820152683732bb9037bbb732b960b91b6064820152608401610532565b610a12816110b3565b50565b6060610a2082610d46565b6000610a4c7f00000000000000000000000000000000000000000000000000000000000000008461207e565b610a579060016120a8565b90506009610a64826110cc565b604051602001610a759291906120bb565b604051602081830303815290604052915050919050565b60606001805461041490611ed3565b610aa633838361115f565b5050565b610ab43383610e13565b610ad05760405162461bcd60e51b815260040161053290611f0d565b610adc8484848461122d565b50505050565b6060610aed82610d46565b6000828152600a602052604081208054610b0690611ed3565b80601f0160208091040260200160405190810160405280929190818152602001828054610b3290611ed3565b8015610b7f5780601f10610b5457610100808354040283529160200191610b7f565b820191906000526020600020905b815481529060010190602001808311610b6257829003601f168201915b505050505090508051600003610bba5750604080518082019091526012815271e197b745e197a9e197aa20e197aae197a94f60701b60208201525b6008546040516347ba168b60e11b81526004810185905260009183916001600160a01b0390911690638f742d1690602401600060405180830381865afa158015610c08573d6000803e3d6000fd5b505050506040513d6000823e601f3d908101601f19168201604052610c309190810190612142565b604051602001610c419291906121b9565b6040516020818303038152906040529050610c5b81611260565b604051602001610c6b91906122f2565b60405160208183030381529060405292505050919050565b610c8b611059565b600780546001600160a01b0383166001600160a01b03199091168117909155610cbc6006546001600160a01b031690565b6001600160a01b03167f38d16b8cac22d99fc7c124b9cd0de2d3fa1faef420bfe791d8c362d765e2270060405160405180910390a350565b600680546001600160a01b038381166001600160a01b0319831681179093556040519116919082907f8be0079c531659141344cd1fd0a4f28419497f9722a3daafe3b4186f6b6457e090600090a35050565b6000818152600260205260409020546001600160a01b0316610a125760405162461bcd60e51b8152602060048201526018602482015277115490cdcc8c4e881a5b9d985b1a59081d1bdad95b88125160421b6044820152606401610532565b600081815260046020526040902080546001600160a01b0319166001600160a01b0384169081179091558190610dda82610813565b6001600160a01b03167f8c5be1e5ebec7d5bd14f71427d1e84f3dd0314c0f7b2291e5b200ac8c7c3b92560405160405180910390a45050565b600080610e1f83610813565b9050806001600160a01b0316846001600160a01b03161480610e6657506001600160a01b0380821660009081526005602090815260408083209388168352929052205460ff165b80610e8a5750836001600160a01b0316610e7f84610497565b6001600160a01b0316145b949350505050565b826001600160a01b0316610ea582610813565b6001600160a01b031614610ecb5760405162461bcd60e51b815260040161053290612337565b6001600160a01b038216610f2d5760405162461bcd60e51b8152602060048201526024808201527f4552433732313a207472616e7366657220746f20746865207a65726f206164646044820152637265737360e01b6064820152608401610532565b610f3a83838360016113b3565b826001600160a01b0316610f4d82610813565b6001600160a01b031614610f735760405162461bcd60e51b815260040161053290612337565b600081815260046020908152604080832080546001600160a01b03199081169091556001600160a01b0387811680865260038552838620805460001901905590871680865283862080546001019055868652600290945282852080549092168417909155905184937fddf252ad1be2c89b69c2b068fc378daa952ba7f163c4a11628f55a4df523b3ef91a4505050565b6000806000611012858561143b565b9150915061101f81611480565b509392505050565b6000826110358686856115ca565b1495945050505050565b610aa6828260405180602001604052806000815250611616565b6006546001600160a01b031633146109995760405162461bcd60e51b815260206004820181905260248201527f4f776e61626c653a2063616c6c6572206973206e6f7420746865206f776e65726044820152606401610532565b600780546001600160a01b0319169055610a1281610cf4565b606060006110d983611649565b600101905060008167ffffffffffffffff8111156110f9576110f9611c21565b6040519080825280601f01601f191660200182016040528015611123576020820181803683370190505b5090508181016020015b600019016f181899199a1a9b1b9c1cb0b131b232b360811b600a86061a8153600a850494508461112d57509392505050565b816001600160a01b0316836001600160a01b0316036111c05760405162461bcd60e51b815260206004820152601960248201527f4552433732313a20617070726f766520746f2063616c6c6572000000000000006044820152606401610532565b6001600160a01b03838116600081815260056020908152604080832094871680845294825291829020805460ff191686151590811790915591519182527f17307eab39ab6107e8899845ad3d59bd9653f200f220920489ca2b5937696c31910160405180910390a3505050565b611238848484610e92565b61124484848484611721565b610adc5760405162461bcd60e51b81526004016105329061237c565b6060815160000361127f57505060408051602081019091526000815290565b60006040518060600160405280604081526020016124a260409139905060006003845160026112ae91906120a8565b6112b891906123ce565b6112c39060046123e2565b67ffffffffffffffff8111156112db576112db611c21565b6040519080825280601f01601f191660200182016040528015611305576020820181803683370190505b509050600182016020820185865187015b80821015611371576003820191508151603f8160121c168501518453600184019350603f81600c1c168501518453600184019350603f8160061c168501518453600184019350603f8116850151845350600183019250611316565b505060038651066001811461138d57600281146113a0576113a8565b603d6001830353603d60028303536113a8565b603d60018303535b509195945050505050565b6001811115610adc576001600160a01b038416156113f9576001600160a01b038416600090815260036020526040812080548392906113f39084906123f9565b90915550505b6001600160a01b03831615610adc576001600160a01b038316600090815260036020526040812080548392906114309084906120a8565b909155505050505050565b60008082516041036114715760208301516040840151606085015160001a6114658782858561181f565b94509450505050611479565b506000905060025b9250929050565b60008160048111156114945761149461240c565b0361149c5750565b60018160048111156114b0576114b061240c565b036114fd5760405162461bcd60e51b815260206004820152601860248201527f45434453413a20696e76616c6964207369676e617475726500000000000000006044820152606401610532565b60028160048111156115115761151161240c565b0361155e5760405162461bcd60e51b815260206004820152601f60248201527f45434453413a20696e76616c6964207369676e6174757265206c656e677468006044820152606401610532565b60038160048111156115725761157261240c565b03610a125760405162461bcd60e51b815260206004820152602260248201527f45434453413a20696e76616c6964207369676e6174757265202773272076616c604482015261756560f01b6064820152608401610532565b600081815b8481101561160d576115f9828787848181106115ed576115ed612422565b905060200201356118e3565b91508061160581612438565b9150506115cf565b50949350505050565b6116208383611912565b61162d6000848484611721565b6105d35760405162461bcd60e51b81526004016105329061237c565b60008072184f03e93ff9f4daa797ed6e38ed64bf6a1f0160401b83106116885772184f03e93ff9f4daa797ed6e38ed64bf6a1f0160401b830492506040015b6d04ee2d6d415b85acef810000000083106116b4576d04ee2d6d415b85acef8100000000830492506020015b662386f26fc1000083106116d257662386f26fc10000830492506010015b6305f5e10083106116ea576305f5e100830492506008015b61271083106116fe57612710830492506004015b60648310611710576064830492506002015b600a83106103ff5760010192915050565b60006001600160a01b0384163b1561181757604051630a85bd0160e11b81526001600160a01b0385169063150b7a0290611765903390899088908890600401612451565b6020604051808303816000875af19250505080156117a0575060408051601f3d908101601f1916820190925261179d91810190612484565b60015b6117fd573d8080156117ce576040519150601f19603f3d011682016040523d82523d6000602084013e6117d3565b606091505b5080516000036117f55760405162461bcd60e51b81526004016105329061237c565b805181602001fd5b6001600160e01b031916630a85bd0160e11b149050610e8a565b506001610e8a565b6000807f7fffffffffffffffffffffffffffffff5d576e7357a4501ddfe92f46681b20a083111561185657506000905060036118da565b6040805160008082526020820180845289905260ff881692820192909252606081018690526080810185905260019060a0016020604051602081039080840390855afa1580156118aa573d6000803e3d6000fd5b5050604051601f1901519150506001600160a01b0381166118d3576000600192509250506118da565b9150600090505b94509492505050565b60008183106118ff57600082815260208490526040902061080c565b600083815260208390526040902061080c565b6001600160a01b0382166119685760405162461bcd60e51b815260206004820181905260248201527f4552433732313a206d696e7420746f20746865207a65726f20616464726573736044820152606401610532565b6000818152600260205260409020546001600160a01b0316156119cd5760405162461bcd60e51b815260206004820152601c60248201527f4552433732313a20746f6b656e20616c7265616479206d696e746564000000006044820152606401610532565b6119db6000838360016113b3565b6000818152600260205260409020546001600160a01b031615611a405760405162461bcd60e51b815260206004820152601c60248201527f4552433732313a20746f6b656e20616c7265616479206d696e746564000000006044820152606401610532565b6001600160a01b038216600081815260036020908152604080832080546001019055848352600290915280822080546001600160a01b0319168417905551839291907fddf252ad1be2c89b69c2b068fc378daa952ba7f163c4a11628f55a4df523b3ef908290a45050565b6001600160e01b031981168114610a1257600080fd5b600060208284031215611ad357600080fd5b813561080c81611aab565b60005b83811015611af9578181015183820152602001611ae1565b50506000910152565b60008151808452611b1a816020860160208601611ade565b601f01601f19169290920160200192915050565b60208152600061080c6020830184611b02565b600060208284031215611b5357600080fd5b5035919050565b80356001600160a01b0381168114611b7157600080fd5b919050565b60008060408385031215611b8957600080fd5b611b9283611b5a565b946020939093013593505050565b600080600060608486031215611bb557600080fd5b611bbe84611b5a565b9250611bcc60208501611b5a565b9150604084013590509250925092565b60008083601f840112611bee57600080fd5b50813567ffffffffffffffff811115611c0657600080fd5b6020830191508360208260051b850101111561147957600080fd5b634e487b7160e01b600052604160045260246000fd5b604051601f8201601f1916810167ffffffffffffffff81118282101715611c6057611c60611c21565b604052919050565b600067ffffffffffffffff821115611c8257611c82611c21565b50601f01601f191660200190565b6000611ca3611c9e84611c68565b611c37565b9050828152838383011115611cb757600080fd5b828260208301376000602084830101529392505050565b600082601f830112611cdf57600080fd5b61080c83833560208501611c90565b600080600080600080600060a0888a031215611d0957600080fd5b87359650602088013567ffffffffffffffff80821115611d2857600080fd5b818a0191508a601f830112611d3c57600080fd5b813581811115611d4b57600080fd5b8b6020828501011115611d5d57600080fd5b6020830198508097505060408a0135915080821115611d7b57600080fd5b611d878b838c01611bdc565b9096509450849150611d9b60608b01611b5a565b935060808a0135915080821115611db157600080fd5b50611dbe8a828b01611cce565b91505092959891949750929550565b600060208284031215611ddf57600080fd5b61080c82611b5a565b60008060408385031215611dfb57600080fd5b611e0483611b5a565b915060208301358015158114611e1957600080fd5b809150509250929050565b60008060008060808587031215611e3a57600080fd5b611e4385611b5a565b9350611e5160208601611b5a565b925060408501359150606085013567ffffffffffffffff811115611e7457600080fd5b8501601f81018713611e8557600080fd5b611e9487823560208401611c90565b91505092959194509250565b60008060408385031215611eb357600080fd5b611ebc83611b5a565b9150611eca60208401611b5a565b90509250929050565b600181811c90821680611ee757607f821691505b602082108103611f0757634e487b7160e01b600052602260045260246000fd5b50919050565b6020808252602d908201527f4552433732313a2063616c6c6572206973206e6f7420746f6b656e206f776e6560408201526c1c881bdc88185c1c1c9bdd9959609a1b606082015260800190565b601f8211156105d357600081815260208120601f850160051c81016020861015611f815750805b601f850160051c820191505b81811015611fa057828155600101611f8d565b505050505050565b815167ffffffffffffffff811115611fc257611fc2611c21565b611fd681611fd08454611ed3565b84611f5a565b602080601f83116001811461200b5760008415611ff35750858301515b600019600386901b1c1916600185901b178555611fa0565b600085815260208120601f198616915b8281101561203a5788860151825594840194600190910190840161201b565b50858210156120585787850151600019600388901b60f8161c191681555b5050505050600190811b01905550565b634e487b7160e01b600052601260045260246000fd5b60008261208d5761208d612068565b500690565b634e487b7160e01b600052601160045260246000fd5b808201808211156103ff576103ff612092565b60008084546120c981611ed3565b600182811680156120e157600181146120f657612125565b60ff1984168752821515830287019450612125565b8860005260208060002060005b8581101561211c5781548a820152908401908201612103565b50505082870194505b505050508351612139818360208801611ade565b01949350505050565b60006020828403121561215457600080fd5b815167ffffffffffffffff81111561216b57600080fd5b8201601f8101841361217c57600080fd5b805161218a611c9e82611c68565b81815285602083850101111561219f57600080fd5b6121b0826020830160208601611ade565b95945050505050565b607b60f81b815268113730b6b2911d101160b91b600182015282516000906121e881600a850160208801611ade565b61088b60f21b600a9184019182018190526f113232b9b1b934b83a34b7b7111d101160811b600c8301527fe197b745e197a9e197aae198942e45e1918ee191954fe197b0e191ade197a9e1601c8301527f9495e194952ee197a9e192aae192aa2ee197aae1968745e197a9e197b0e19495603c8301527f2068747470733a2f2f696c6f7665626561647a2e78797a000000000000000000605c8301526073820152691134b6b0b3b2911d101160b11b607582015283516122af81607f840160208801611ade565b6122e86122db6122ce607f84860101632e706e6760e01b815260040190565b601160f91b815260010190565b607d60f81b815260010190565b9695505050505050565b7f646174613a6170706c69636174696f6e2f6a736f6e3b6261736536342c00000081526000825161232a81601d850160208701611ade565b91909101601d0192915050565b60208082526025908201527f4552433732313a207472616e736665722066726f6d20696e636f72726563742060408201526437bbb732b960d91b606082015260800190565b60208082526032908201527f4552433732313a207472616e7366657220746f206e6f6e20455243373231526560408201527131b2b4bb32b91034b6b83632b6b2b73a32b960711b606082015260800190565b6000826123dd576123dd612068565b500490565b80820281158282048414176103ff576103ff612092565b818103818111156103ff576103ff612092565b634e487b7160e01b600052602160045260246000fd5b634e487b7160e01b600052603260045260246000fd5b60006001820161244a5761244a612092565b5060010190565b6001600160a01b03858116825284166020820152604081018390526080606082018190526000906122e890830184611b02565b60006020828403121561249657600080fd5b815161080c81611aab56fe4142434445464748494a4b4c4d4e4f505152535455565758595a6162636465666768696a6b6c6d6e6f707172737475767778797a303132333435363738392b2fa2646970667358221220a0bffeb811e595e46c0965997232c2c2e4da856ab0eb60a5e1a45c9c8357139764736f6c63430008120033",
    "linkReferences": {}
  },
  "methodIdentifiers": {
    "acceptOwnership()": "79ba5097",
    "approve(address,uint256)": "095ea7b3",
    "balanceOf(address)": "70a08231",
    "baseURI()": "6c0360eb",
    "editionCount()": "4bf44026",
    "getApproved(uint256)": "081812fc",
    "getMessageHash(address,uint256)": "512c91df",
    "imageURI(uint256)": "8f742d16",
    "isApprovedForAll(address,address)": "e985e9c5",
    "lizardRoot()": "b8b7005f",
    "mint(uint256,bytes,bytes32[],address,string)": "3125ef4c",
    "name()": "06fdde03",
    "owner()": "8da5cb5b",
    "ownerOf(uint256)": "6352211e",
    "pendingOwner()": "e30c3978",
    "renderer()": "8ada6b0f",
    "renounceOwnership()": "715018a6",
    "safeTransferFrom(address,address,uint256)": "42842e0e",
    "safeTransferFrom(address,address,uint256,bytes)": "b88d4fde",
    "setApprovalForAll(address,bool)": "a22cb465",
    "supportsInterface(bytes4)": "01ffc9a7",
    "symbol()": "95d89b41",
    "tokenURI(uint256)": "c87b56dd",
    "transferFrom(address,address,uint256)": "23b872dd",
    "transferOwnership(address)": "f2fde38b"
  },
  "id": 33
}