{
  "abi": [
    {
      "inputs": [],
      "stateMutability": "nonpayable",
      "type": "constructor"
    },
    {
      "inputs": [
        {
          "components": [
            {
              "internalType": "address",
              "name": "from",
              "type": "address"
            },
            {
              "internalType": "address",
              "name": "to",
              "type": "address"
            },
            {
              "internalType": "uint256",
              "name": "nonce",
              "type": "uint256"
            },
            {
              "internalType": "bytes",
              "name": "data",
              "type": "bytes"
            }
          ],
          "internalType": "struct LizardForwarder.ForwardRequest",
          "name": "req",
          "type": "tuple"
        },
        {
          "internalType": "bytes",
          "name": "signature",
          "type": "bytes"
        }
      ],
      "name": "execute",
      "outputs": [
        {
          "internalType": "bool",
          "name": "success",
          "type": "bool"
        },
        {
          "internalType": "bytes",
          "name": "result",
          "type": "bytes"
        }
      ],
      "stateMutability": "payable",
      "type": "function"
    },
    {
      "inputs": [
        {
          "components": [
            {
              "internalType": "address",
              "name": "from",
              "type": "address"
            },
            {
              "internalType": "address",
              "name": "to",
              "type": "address"
            },
            {
              "internalType": "uint256",
              "name": "nonce",
              "type": "uint256"
            },
            {
              "internalType": "bytes",
              "name": "data",
              "type": "bytes"
            }
          ],
          "internalType": "struct LizardForwarder.ForwardRequest",
          "name": "req",
          "type": "tuple"
        }
      ],
      "name": "getMessageHash",
      "outputs": [
        {
          "internalType": "bytes32",
          "name": "",
          "type": "bytes32"
        }
      ],
      "stateMutability": "view",
      "type": "function"
    },
    {
      "inputs": [
        {
          "internalType": "address",
          "name": "from",
          "type": "address"
        }
      ],
      "name": "getNonce",
      "outputs": [
        {
          "internalType": "uint256",
          "name": "",
          "type": "uint256"
        }
      ],
      "stateMutability": "view",
      "type": "function"
    },
    {
      "inputs": [
        {
          "components": [
            {
              "internalType": "address",
              "name": "from",
              "type": "address"
            },
            {
              "internalType": "address",
              "name": "to",
              "type": "address"
            },
            {
              "internalType": "uint256",
              "name": "nonce",
              "type": "uint256"
            },
            {
              "internalType": "bytes",
              "name": "data",
              "type": "bytes"
            }
          ],
          "internalType": "struct LizardForwarder.ForwardRequest",
          "name": "req",
          "type": "tuple"
        },
        {
          "internalType": "bytes",
          "name": "signature",
          "type": "bytes"
        }
      ],
      "name": "verify",
      "outputs": [
        {
          "internalType": "bool",
          "name": "",
          "type": "bool"
        }
      ],
      "stateMutability": "view",
      "type": "function"
    }
  ],
  "bytecode": {
    "object": "0x61014060405234801561001157600080fd5b50604080518082018252600f81526e2634bd30b9322337b93bb0b93232b960891b602080830191825283518085019094526005845264302e302e3160d81b908401528151902060e08190527fae209a0b48f21c054280f2455d32cf309387644879d9acbd8ffc1991638118856101008190524660a0529192917f8b73c3c69bb8fe3d512ecc4cf759cc79239f7b179b0ffacaa9a75d522b39400f6100fa8184846040805160208101859052908101839052606081018290524660808201523060a082015260009060c0016040516020818303038152906040528051906020012090509392505050565b6080523060c052610120525061010f92505050565b60805160a05160c05160e0516101005161012051610a6261015e60003960006104ed0152600061053c01526000610517015260006104700152600061049a015260006104c40152610a626000f3fe60806040526004361061003f5760003560e01c80630f22ee6f146100445780632d0335ab1461007757806387fa623c146100ad578063c39d17ab146100dd575b600080fd5b34801561005057600080fd5b5061006461005f3660046107f8565b6100fe565b6040519081526020015b60405180910390f35b34801561008357600080fd5b50610064610092366004610835565b6001600160a01b031660009081526020819052604090205490565b3480156100b957600080fd5b506100cd6100c8366004610865565b6101bc565b604051901515815260200161006e565b6100f06100eb366004610865565b610275565b60405161006e929190610920565b60006101b67fdbdd1e7c33c0012aa959d7ad111589772e65fafb77b3d5213fc4198ca92fa3b46101316020850185610835565b6101416040860160208701610835565b6040860135610153606088018861095c565b6040516101619291906109a3565b6040805191829003822060208301969096526001600160a01b0394851690820152929091166060830152608082015260a081019190915260c001604051602081830303815290604052805190602001206103f1565b92915050565b60008061020a84848080601f01602080910402602001604051908101604052809392919081815260200183838082843760009201919091525061020492508991506100fe9050565b9061043f565b905060408501356000806102216020890189610835565b6001600160a01b03166001600160a01b031681526020019081526020016000205414801561026c57506102576020860186610835565b6001600160a01b0316816001600160a01b0316145b95945050505050565b600060606102848585856101bc565b6102ef5760405162461bcd60e51b815260206004820152603160248201527f4c697a617264466f727761726465723a207369676e617475726520646f6573206044820152701b9bdd081b585d18da081c995c5d595cdd607a1b60648201526084015b60405180910390fd5b6102fe604086013560016109b3565b60008061030e6020890189610835565b6001600160a01b03166001600160a01b03168152602001908152602001600020819055508460200160208101906103459190610835565b6001600160a01b031661035b606087018761095c565b6103686020890189610835565b60405160200161037a939291906109d4565b60408051601f1981840301815290829052610394916109fa565b6000604051808303816000865af19150503d80600081146103d1576040519150601f19603f3d011682016040523d82523d6000602084013e6103d6565b606091505b509092509050816103e957805160208201fd5b935093915050565b60006101b66103fe610463565b8360405161190160f01b6020820152602281018390526042810182905260009060620160405160208183030381529060405280519060200120905092915050565b600080600061044e858561058a565b9150915061045b816105cf565b509392505050565b6000306001600160a01b037f0000000000000000000000000000000000000000000000000000000000000000161480156104bc57507f000000000000000000000000000000000000000000000000000000000000000046145b156104e657507f000000000000000000000000000000000000000000000000000000000000000090565b50604080517f00000000000000000000000000000000000000000000000000000000000000006020808301919091527f0000000000000000000000000000000000000000000000000000000000000000828401527f000000000000000000000000000000000000000000000000000000000000000060608301524660808301523060a0808401919091528351808403909101815260c0909201909252805191012090565b60008082516041036105c05760208301516040840151606085015160001a6105b48782858561071c565b945094505050506105c8565b506000905060025b9250929050565b60008160048111156105e3576105e3610a16565b036105eb5750565b60018160048111156105ff576105ff610a16565b0361064c5760405162461bcd60e51b815260206004820152601860248201527f45434453413a20696e76616c6964207369676e6174757265000000000000000060448201526064016102e6565b600281600481111561066057610660610a16565b036106ad5760405162461bcd60e51b815260206004820152601f60248201527f45434453413a20696e76616c6964207369676e6174757265206c656e6774680060448201526064016102e6565b60038160048111156106c1576106c1610a16565b036107195760405162461bcd60e51b815260206004820152602260248201527f45434453413a20696e76616c6964207369676e6174757265202773272076616c604482015261756560f01b60648201526084016102e6565b50565b6000807f7fffffffffffffffffffffffffffffff5d576e7357a4501ddfe92f46681b20a083111561075357506000905060036107d7565b6040805160008082526020820180845289905260ff881692820192909252606081018690526080810185905260019060a0016020604051602081039080840390855afa1580156107a7573d6000803e3d6000fd5b5050604051601f1901519150506001600160a01b0381166107d0576000600192509250506107d7565b9150600090505b94509492505050565b6000608082840312156107f257600080fd5b50919050565b60006020828403121561080a57600080fd5b813567ffffffffffffffff81111561082157600080fd5b61082d848285016107e0565b949350505050565b60006020828403121561084757600080fd5b81356001600160a01b038116811461085e57600080fd5b9392505050565b60008060006040848603121561087a57600080fd5b833567ffffffffffffffff8082111561089257600080fd5b61089e878388016107e0565b945060208601359150808211156108b457600080fd5b818601915086601f8301126108c857600080fd5b8135818111156108d757600080fd5b8760208285010111156108e957600080fd5b6020830194508093505050509250925092565b60005b838110156109175781810151838201526020016108ff565b50506000910152565b821515815260406020820152600082518060408401526109478160608501602087016108fc565b601f01601f1916919091016060019392505050565b6000808335601e1984360301811261097357600080fd5b83018035915067ffffffffffffffff82111561098e57600080fd5b6020019150368190038213156105c857600080fd5b8183823760009101908152919050565b808201808211156101b657634e487b7160e01b600052601160045260246000fd5b8284823760609190911b6bffffffffffffffffffffffff19169101908152601401919050565b60008251610a0c8184602087016108fc565b9190910192915050565b634e487b7160e01b600052602160045260246000fdfea2646970667358221220adc99e395725766cc45a5d9d5a4955d19e62286f824ae653ebc4b5ed3f1e1a4064736f6c63430008110033",
    "linkReferences": {}
  },
  "methodIdentifiers": {
    "execute((address,address,uint256,bytes),bytes)": "c39d17ab",
    "getMessageHash((address,address,uint256,bytes))": "0f22ee6f",
    "getNonce(address)": "2d0335ab",
    "verify((address,address,uint256,bytes),bytes)": "87fa623c"
  },
  "id": 37
}